:1000000000308A00632800005D08FB3E03181928B1
:10001000053E1C280130F80019280230F800192884
:100020000430F80019280830F80019281030F800BA
:1000300019288A110A124E280A108A100A118207FA
:100040000A280D281028132816285D3084008313F1
:100050000008031939280130F800F701F70B2E28A2
:10006000F80B2D284A30F700F70B34283728800B7F
:100070002B2808000130DA005A085902031C6228B4
:100080000130DC005C080A3C031C6028DB015B08D3
:10009000043C031C5E285B08DD0004287808870008
:1000A0005B08570784008313581883170008DD0086
:1000B00086000130DD002520DB0A4728DC0A4228C3
:1000C000DA0A3C28080003081F39830083161F142E
:1000D0009F141F159F118313F9308312A000C9309C
:1000E000A100A200A3004F30A400FF30A500C9303A
:1000F000A600A700A8004130A9001F30AA000830C0
:10010000AB000430AC000230AD001F30AE00AF01D8
:10011000B0015F30B100B201B3011C30B400023055
:10012000B5000130B6000230B7001C30B8004030D6
:10013000B9002030BA001F30BB002030BC00403076
:10014000BD00FF30BE004130BF00C000C100FF3025
:10015000C200C3004C30C4004A30C5007930C6002C
:10016000C701FF30C8000130C900CA00CB00FF3012
:10017000CC001F30CD000830CE000430CF00083056
:10018000D0001F30D100FF30D2000830D30014302F
:10019000D4004230D5008130D60083160912831274
:1001A00090010030F80092000030831692001F1476
:1001B0009F141F159F1183121F10F03097059D0586
:1001C00000308316860087008312D8012030D700C4
:1001D0001430D9003A20D8012530D7001430D90086
:1001E0003A20D8012A30D7001430D9003A20D8015B
:1001F0002F30D7001430D9003A20D8012030D70052
:100200001430D9003A20D8012530D7001430D90055
:100210003A20D8013430D7001430D9003A20D80120
:100220002F30D7001430D9003A20D8013930D70008
:100230001430D9003A20D8013E30D7001430D9000C
:100240003A20D8014330D7001430D9003A20D801E1
:100250004830D7001430D9003A20D8014D30D700AB
:100260001430D9003A208601C830DD002520D8019D
:100270004D30D7001430D9003A208601C830DD0057
:100280002520D8014D30D7001430D9003A208601FE
:100290000430D700FA30DD002520D70B4A29D801D9
:1002A0004D30D7001430D9003A20D8012F30D70074
:1002B0001430D9003A20D8012A30D7001430D900A0
:1002C0003A2086010230D7009630DD002520D70B7A
:1002D0006429D8012A30D7001430D9003A20D80137
:1002E0003E30D7001430D9003A20D8012030D70052
:1002F0001430D9003A20D8015230D7001430D90038
:060300003A20E52863002D
:02400E00393F38
:00000001FF
;PIC16F877
;CRC=F4D4  CREATED="31-May-19 18:16"
