:1000000000308A0019280000213084008313000882
:10001000031918280130F800F701F70B0D28F80B29
:100020000C284A30F700F70B13281628800B0A28F3
:10003000080003081F398300A00183161F149F14B2
:100040001F159F1183130912831290010030F800CD
:1000500092000030831692001F149F141F159F11E9
:1000600083121F10F03097059D050030831686001F
:100070008312A0012008073C031C452820088600A5
:10008000FA30A1000420A00A3A28A0012008073C69
:10009000031C532820081038A1008600FA30A10064
:1000A0000420A00A4628A0012008073C031C612860
:1000B00020082038A1008600FA30A1000420A00A00
:1000C0005428A0012008073C031C6F282008303862
:1000D000A1008600FA30A1000420A00A6228392875
:0200E0006300BB
:02400E00393F38
:00000001FF
;PIC16F877
;CRC=A9EC  CREATED="01-Jun-19 18:23"
