:1000000000308A008128000021086B3A0319122869
:100010000A3A03191D28033A03192828013A03193B
:1000200033283E28831685010D3083128500831600
:1000300086018312220886003F288316850101303D
:1000400083128500831686018312220886003F28CA
:10005000831685010530831285008316860183127D
:10006000220886003F288316850109308312850007
:10007000831686018312220886003F283F28080045
:1000800021086B3A03194E280A3A03195A28033AF1
:1000900003196628013A031972287E288316850100
:1000A0000E3083128500FF30831686008312060807
:1000B000F8007E2883168501023083128500FF3008
:1000C0008316860083120608F8007E2883168501B1
:1000D000063083128500FF308316860083120608DF
:1000E000F8007E28831685010A3083128500FF30D0
:1000F0008316860083120608F8007E288A110A12E9
:10010000A82803081F39830083161F149F141F1586
:100110009F1183130912831290010030F80092009E
:100120000030831692001F149F141F159F11831215
:100130001F10F03097059D056B30A1008930A2009B
:1001400004206130A100A20104206330A1004028F6
:100150007808A0006130A1002008A2000420A52892
:0201600063003A
:02400E00393F38
:00000001FF
;PIC16F877
;CRC=B8E7  CREATED="06-Jun-19 23:58"
