:1000000000308A003C2800000A108A100A1182077A
:100010000034013402340334043405340634073424
:100020000834093423308400831300080319262878
:100030000130F800F701F70B1B28F80B1A284A309B
:10004000F700F70B21282428800B18280800240823
:10005000F801230203182F282308F7003B28F70193
:100060000830A500A30DF70D240877020318F70048
:10007000F80DA50B3228080003081F398300A001E2
:10008000A101A20183161F149F141F159F11831332
:100090000912831290010030F8009200003083169C
:1000A00092001F149F141F159F1183121F10F03010
:1000B00097059D0503308316850000308600831266
:1000C000200804201038A30086000530A300122069
:1000D000210804202038A30086000530A300122048
:1000E000051C9428A20A2208A3000A30A400272095
:1000F0007708A0002208A3000A30A400272078086F
:10010000A100051C9428200804201038A3008600B4
:100110000530A3001220210804202038A300860007
:100120000530A30012208128851CBB28A2080319D2
:10013000BB28A2032208A3000A30A40027207708C6
:10014000A0002208A3000A30A40027207808A100FC
:10015000851CBB28200804201038A3008600053029
:10016000A3001220210804202038A30086000530B7
:10017000A3001220A8282208643C0319A2016028C9
:0201800063001A
:02400E00393F38
:00000001FF
;PIC16F877
;CRC=1BC9  CREATED="15-Jun-19 15:37"
