:1000000000308A000428000083161F149F141F1557
:100010009F1183131F308305091283129001003052
:10002000F80092000030831692001F149F141F15D1
:100030009F1183121F10F03097059D05831606113E
:1000400083120615831686118312861183160514F2
:100050008312051C33288316061083120614831698
:10006000861083128610831685148312851C4028FF
:1000700083160610831206108316861083128614C8
:10008000831605158312051D4D288316061083124D
:0E009000061083168610831286102628630041
:02400E00393F38
:00000001FF
;PIC16F877
;CRC=37DE  CREATED="12-Jul-19 17:16"
