:1000000003308A00032B0000FF00030E8301A100D0
:100010000A08A0008A010408A2007708A300780853
:10002000A4007908A5007A08A600831383128C30F7
:100030008400801E1D288C1A2E2822088400230884
:10004000F7002408F8002508F9002608FA0020081F
:100050008A00210E8300FF0E7F0E09008A110A120A
:10006000D8290A108A100A11820728340C34013466
:1000700006340B080317980003138B13831603171A
:100080008C170C14000000000318652883120C085C
:100090007F3999000D089A000F089B001908031377
:1000A0000C1E5028990003171A088D001B088F009A
:1000B00083168C170C14000000008312970B612824
:1000C0006328831665288128831683120C0D0E0D74
:1000D0007F3999000D089A000F089B001908031337
:1000E0000C1E7028990003171A088D001B088F003A
:1000F0008D0A03198F0A0310970B7F288128031399
:100100003E28981F862803138B1703170313080034
:1001100080080319A52803179801040897001810F0
:10012000831B1814000803130C1E9428990003174E
:1001300017088400831318188317840A031DA32843
:100140000313850A03170313882808000F3083164A
:100150000605F0388600831206150000061400001C
:100160000608F700060E0F39F80078080317A100FB
:10017000031306100000061400000608F700060E20
:100180000F39F80078080317A000031306100F308A
:1001900083160605860083120317210EF700F03040
:1001A000F70577082004F800031308000317210E51
:1001B000F039F7000F3003130605770486000000BE
:1001C0000614E22806100800831606108610061191
:1001D00083128610A62078080317A000A01FF2281B
:1001E0000313EA281E18F7280313861003171E1C92
:1001F000FC280313861403170000031306110000E4
:10020000061003171F0EA0000F30A0052008A10044
:100210000313D62003171F080F39A000A1000313F2
:10022000D620080003171B0B1629192940309C0003
:100230001A299C0101301A029C071C0880389D0075
:100240009E011D089F000313E42008001A3084005B
:100250008317000803193A290130F800F701F70B5A
:100260002F29F80B2E294A30F700F70B35293829AA
:10027000800B2C29080003171908073A03130319E8
:100280004B290B3A03195229063A03195E29023AFF
:10029000031966296D29013003179A009B00031387
:1002A0001221742903179E0101309F000313E420DB
:1002B000023003179A000313262174290130031713
:1002C0009A0002309B0003131221742903179E0128
:1002D00010309F000313E4207429013003179E009F
:1002E00019089F000313E4200800800803199129CE
:1002F00003179801040897001810831B18140008AE
:10030000990003133B21031717088400831318185F
:100310008317840A031D8F290313850A0317031308
:10032000752908000B080317970003138B13831616
:1003300003178C170C140000000083120C087F397F
:100340000319D12998000D0899000F089A00180880
:1003500003130C1EA9299900031719088D001A0808
:100360008F0083168C170C140000000083120C0DF4
:100370000E0D7F390319D12998000D0899000F0837
:100380009A00180803130C1EC329990003171908B3
:100390008D001A088F008D0A03198F0A03139729FD
:1003A0000317971FD62903138B170317031308008E
:1003B00083168C128312DA125A088316870083126E
:1003C0008716A030840083138403840A8C1EE629D8
:1003D0001A0880000D300002031DE5298001463017
:1003E00003178D0002308F0003101630970003139F
:1003F0003920A0308400831388200A300C1EFE2987
:1004000099000C300317990003133B21A03084009E
:10041000831375212830840083138403840A8C1E7F
:100420000F2A1A0880000D300002031D0E2A8001D9
:10043000533003178D0002308F00031019309700DE
:100440000313392028308400831388200A300C1EBF
:10045000272A9900013003179A0002309B000313EA
:1004600012212830840083137521DA125A0883166A
:10047000870083128712623003178D0002308F00CD
:10048000031392218C128A110A121D288A06D93070
:100490007A32E9336937693DA026653A69373E10FB
:1004A0002010A5390A008A06D9307A32E933693733
:1004B000693D20192E10CD32F4346E1F2010A01289
:1004C000730500018A064B36613BF932E4326E1047
:1004D000E2347210ED32F4346E10E734F234EE345C
:1004E0007A10F632A0326E3A6539203AF53975370E
:1004F0006110E230F334EE347A1F00000D152A1536
:100500002A152A152A152A10A0266539E830E23066
:1005100020102A152A152A152A152A000A340D3406
:100520004B346C34613476347934653464346534F6
:100530006E34203467346934723464346934F0348E
:1005400069346E3469347A342034623469346C34FA
:10055000673469346C346534723420344C34433439
:1005600044342734203464346534203467346F34A1
:10057000723475346E346534633465346B3474347A
:10058000693472340A340A3400348A064B36613BCB
:10059000F932E4326E10E2347210ED32F4346E103F
:1005A000E734F234EE347A10F632A0326E3A65391E
:1005B000203AF53975376110E230F334EE347A1FA2
:1005C0000000831603178C170C1400000000831220
:1005D0008C080319FF2A0D0890000F0891000C08E1
:1005E00003130C1EF12A9900031710088D0011083F
:1005F0008F008D0A03198F0A0313E12A03170313CF
:100600008A110A12A92B193083169900A630980076
:10061000903083129800FF30DA0083161F149F1465
:100620001F159F1183131F30830509128312900138
:100630000030F80092000030831692001F149F14BF
:100640001F159F1183121F10F03097059D05DA12B8
:100650005A0883168700831287120F308316060507
:1006600086000610861006118312861006110610E9
:10067000A7018B1BA7178B130F3003179A000313C7
:100680002621A71B8B170130031790001008033C8D
:10069000031C642B0313A7018B1BA7178B130330B9
:1006A0000317A1000313D620A71B8B17A7018B1BD1
:1006B000A7178B13053003179A0003132621A71BD6
:1006C0008B170317900A462B0313A7018B1BA71741
:1006D0008B1302300317A1000313D620A71B8B171F
:1006E000A7018B1BA7178B13053003179A00031361
:1006F0002621A71B8B17031790011008033C031C2E
:10070000962B100803133120031791000313A70140
:100710008B1BA7178B1303179E0111089F00031350
:10072000E420A71B8B170317900A7D2B7E308D00CA
:1007300002308F000313A7018B1BA7178B13922185
:10074000A71B8B178E3003178D0002308F00031309
:10075000E12AC53003178D0002308F000313A70173
:100760008B1BA7178B139221A71B8B17C0308B04F1
:0807700083168C16B92B6300FF
:02400E00393F38
:00000001FF
;PIC16F877
;CRC=2024  CREATED="01-Jul-19 20:36"
