:1000000002308A00442A0000FF00030E8301A10091
:100010000A08A0008A010408A2007708A300780853
:10002000A4007908A5007A08A600831383128B1E0A
:100030001B280B192C28220884002308F700240809
:10004000F8002508F9002608FA0020088A00210E89
:100050008300FF0E7F0E09008A110A1237280A104A
:100060008A100A11820728340C3401340634D9303E
:100070008100A70A2708643C031D4328A701A80A9A
:10008000280F4328A8010B118A110A121B28D33A02
:10009000F232BD12B0197517251832320000D3376D
:1000A000EE3AE31E2518B33AAE1230196400D33A83
:1000B000F232BD12B0197517251832320001D3374C
:1000C000EE3AE31E2518B33AAE1230196400D33A63
:1000D000F232BD12B0197517251832320001D3372C
:1000E000EE3AE31E2518B33AAE12301964003230EE
:1000F00084008313000803198B280130F800F701EE
:10010000F70B8028F80B7F284A30F700F70B86287A
:100110008928800B7D280800390EF039F7000F3050
:1001200006057704860000000614962806100800CD
:100130000608F700060E0F39F800080083160610AF
:1001400086100611831286100F3083160605F038CC
:100150008600831206150000061400009820780817
:10016000B900061000000614000098207808B800B6
:1001700006100F308316060586008312390EF7002D
:10018000F030F70577083804F8007808B800B81B95
:10019000A428361C861036188614000006110000AC
:1001A0000610370EB8000F30B8053808B9008C209B
:1001B00037080F39B800B9008C2008000F308316BB
:1001C0000605860006108610061183128610061199
:1001D00006100F30B20077200130A9002908033C37
:1001E000031CFA280330B9008C200530B2007720B8
:1001F000A90AEE280230B9008C200530B200772021
:10020000A9012908033C031C0E2929082F20AA0054
:10021000B6012A08B7009E20A90A01298A110A12EC
:10022000652A330B142917294030B4001829B4016A
:1002300001303202B40734088038B500B601350801
:10024000B7009E2008003108073A031931290B3AFC
:1002500003193629063A03193E29023A031944299B
:1002600049290130B200B30011214E29B6010130F5
:10027000B7009E200230B20077204E290130B20034
:100280000230B30011214E29B6011030B7009E2074
:100290004E290130B6003108B7009E2008000B0837
:1002A000AC008B13831603178C170C14000000008E
:1002B0000318812983120C087F390313AD0003173B
:1002C0000D080313AE0003170F080313AF002D082A
:1002D000B10023212E0803178D0003132F080317E5
:1002E0008F0083168C170C14000000008312031378
:1002F000AB0B7B297E29831603178129A02983163E
:10030000031783120C0D0E0D7F390313AD00031775
:100310000D080313AE0003170F080313AF002D08D9
:10032000B10023212E0803178D0003132F08031794
:100330008F008D0A03198F0A03100313AB0B522988
:10034000AC1B8B1708003208F80131020318AB29E7
:100350003108F700B729F7010830B300B10DF70DE8
:10036000320877020318F700F80DB30BAE29080026
:1003700078082B08B1006430B200A3217708AB00E5
:1003800078083030031DCB29AC1CD229AC19D229F6
:100390002C1A2030CE29AC112C122C14F807780816
:1003A000B10023212B08B1000A30B200A321770845
:1003B000AB0078083030031DE329AC19E7292C1C69
:1003C000E7292C1A2030F8077808B10023213030B3
:1003D000AB072B08B1002321080020302C1E303041
:1003E000AD002B08F700AB1FFD29F709F70A7708C6
:1003F000AB002D30AD00AC172C142B08B1006430CD
:10040000B200A3217708AB0030307807AE002B088C
:10041000B1000A30B200A32130307707B00030308D
:100420007807AF002D08F70030302E0203191C2A80
:10043000AC14AC1B2C15302A2C19302A2D08AE0018
:10044000AC18272A30302F0203192A2A2C14AC1B8F
:10045000AC14302A031D2C14031D302A2E08AF00C3
:100460002C19372AAC183A2A2C183D2A402A2D0874
:10047000B10023212E08B10023212F08B100232130
:100480003008B10023210800A701A80183161F141A
:100490009F141F159F1183131F30830509128312A8
:1004A00090010030F80092000030831692001F1473
:1004B0009F141F159F1183121F10F03097059D0583
:1004C0000F30831685008312DE2883160108C03999
:1004D00007388100D930831281000130B200B300A7
:1004E0001121473003178D0000308F0003100530B5
:1004F0000313AB004F212808AB000330AC00B82138
:100500002E30B10023212708AB000130AC00ED21D3
:100510000130B2000230B300112103178D018316A0
:100520008C130C1483120C080313A9000130031759
:100530008D0083168C130C1483120C080313AA006D
:100540004F3003178D0000308F0003100630031367
:10055000AB004F212908AB000330AC00B8212E308E
:10056000B10023212A08AB000130AC00ED21851D2C
:10057000262BA7012708A8000B08F7008B130317E9
:100580008D010313280803178C0083168C130C1598
:1005900055308D00AA308D008C148C18CD2A0C118A
:1005A0007708831203138B040B08F7008B130130B9
:1005B00003178D000313270803178C0083168C1371
:1005C0000C1555308D00AA308D008C148C18E62A3D
:1005D0000C117708831203138B040130B200B300AF
:1005E0001121573003178D0000308F0003100530A4
:1005F0000313AB004F212808AB000330AC00B82137
:100600002E30B10023212708AB000130AC00ED21D2
:100610000130B2000230B30011215F3003178D00AA
:1006200000308F00031006300313AB004F21280861
:10063000AB000330AC00B8212E30B10023212708D5
:10064000AB000130AC00ED218519242B051CE82BF3
:100650000519E42B8B16C0308B040130B200B300B7
:100660001121673003178D0000308F000310053013
:100670000313AB004F212808AB000330AC00B821B6
:100680002E30B10023212708AB000130AC00ED2152
:100690000130B2000230B300112103178D0183161F
:1006A0008C130C1483120C080313A90001300317D8
:1006B0008D0083168C130C1483120C080313AA00EC
:1006C0006F3003178D0000308F00031006300313C6
:1006D000AB004F212908AB000330AC00B8212E300D
:1006E000B10023212A08AB000130AC00ED21851CAC
:1006F000D12B0B08F7008B1303178D010313280868
:1007000003178C0083168C130C1555308D00AA30FE
:100710008D008C148C188A2B0C117708831203130C
:100720008B040B08F7008B13013003178D000313A4
:10073000270803178C0083168C130C1555308D0079
:10074000AA308D008C148C18A32B0C1177088312FF
:1007500003138B040730B2000230B30011210317DA
:100760008D0183168C130C1483120C080313A9003B
:10077000013003178D0083168C130C1483120C08A0
:100780000313AA002908AB000330AC00B8212E30B7
:10079000B10023212A08AB000130AC00ED218518FF
:1007A000CF2B0630B2000130B30011212808AB0076
:1007B0000330AC00B8212E30B10023212708AB0054
:1007C0000130AC00ED21282B0B138B138B1BE52B79
:0407D000B72A6300E1
:02400E00393F38
:00000001FF
;PIC16F877
;CRC=2F68  CREATED="25-Jun-19 12:43"
