:1000000005308A007A2D00000A108A100A11820732
:1000100028340C34013406348C224528D2274D1064
:100020004132F232F31E0000C5225029CF26202B88
:10003000653969103D0029308400831300080319D5
:100040002F280130F800F701F70B2428F80B23289C
:100050004A30F700F70B2A282D28800B21280800AA
:10006000300EF039F7000F300605770486000000E7
:1000700006143A28061008000608F700060E0F3985
:10008000F8000800831606108610061183128610E9
:100090000F3083160605F03886008312061500001F
:1000A000061400003C207808B0000610000006147A
:1000B00000003C207808AF0006100F3083160605BC
:1000C00086008312300EF700F030F70577082F0412
:1000D000F8007808AF00AF1B48282D1C86102D189B
:1000E000861400000611000006102E0EAF000F301F
:1000F000AF052F08B00030202E080F39AF00B00038
:10010000302008000F308316060586000610861082
:10011000061183128610061106100F30A9001B204D
:100120000130A4002408033C031C9E280330B000C7
:1001300030200530A9001B20A40A92280230B0000C
:1001400030200530A9001B20A4012408033C031C17
:10015000B22824080420A500AD012508AE004220E5
:10016000A40AA5288A110A129C2D2A0BB828BB289C
:100170004030AB00BC28AB0101302902AB072B0893
:100180008038AC00AD012C08AE00422008002808E1
:10019000073A0319D5280B3A0319DA28063A031946
:1001A000E228023A0319E828ED280130A900AA0044
:1001B000B520F228AD010130AE0042200230A90086
:1001C0001B20F2280130A9000230AA00B520F22835
:1001D000AD011030AE004220F2280130AD002808F9
:1001E000AE00422008000B08A4008B1383160317EF
:1001F0008C170C140000000083120C087F390319BF
:100200003A290313A50003170D080313A6000317CB
:100210000F080313A7002508A800C7202608031706
:100220008D000313270803178F0083168C170C14F7
:100230000000000083120C0D0E0D7F3903193A29BE
:100240000313A50003170D080313A60003170F08D7
:100250000313A7002508A800C720260803178D0050
:100260000313270803178F008D0A03198F0A03133E
:10027000F62803170313A41B8B1708008E30F70012
:100280004108F8004008F900FA01F808031D522956
:100290007908F800F9010830F702F808031D52291F
:1002A000F7015A290310F81B5929F90DF80DF70326
:1002B0005229F81308003D08C4004108C406C41FB1
:1002C000662903110310BD1B031499293D08C400BE
:1002D0004008C5003C08C50203197429C41F9929A8
:1002E0000308013A830099294108C5003D08C50269
:1002F00003198029C41F99290308013A8300992909
:100300004208C5003E08C50203198C29C41F99295B
:100310000308013A830099294308C5003F08C50234
:1003200003199829C41F99290308013A83009929C0
:10033000031008008E30F7003C08F7023D08F90072
:100340003E08F800F917F7080319B1290310F90856
:10035000031DAD29F8080319B129F90CF80CF70BA6
:10036000A629BD1FB829F809F909F80A0319F90ADD
:1003700008003C080319292AC40040080319292A47
:10038000C4070318CA297F30C402031C292A031991
:10039000292ACE298130C4070318292A4408F700E6
:1003A000F801F901FA013D08C800C8173E08C70066
:1003B0003F08C6001830C400C501461CF729430891
:1003C000FA07031CE929F90A031DE929F80A0319A8
:1003D000C5174208F907031CF029F80A0319C517C5
:1003E0004108BE00BE173E08F8070318C517C50D23
:1003F000F80CF90CFA0CC80CC70CC60C0310C40B93
:10040000DC290130F7070318292AF81B0E2AC80D2A
:10041000FA0DF90DF80DF7030319292AC81F1F2A31
:10042000FA0A031D1F2AF90A031D1F2AF80A031DD1
:100430001F2AF80CF90CFA0CF70A0319292A3D08AF
:10044000C5004108C506C51F272AF8172D2AF8132D
:100450002D2AF701F801F901FA010800803083180C
:10046000C506CA01CB014108C9004508C9064008B4
:1004700003191E2BC800F70044080319272BC802D4
:100480000319C32A031C812A4508CE00CE1746084B
:10049000CD004708CC00CB010310CE0CCD0CCC0C0A
:1004A000CB0CC80B4B2AC91F582A4A143B2B4A10A5
:1004B00048104A16433084008313502B4A12C91B3C
:1004C0006B2A481C762ACE0CCD0CCC0CCB0CF70A30
:1004D0000319362B762ACE1B792A0310CB0DCC0DAF
:1004E000CD0DCE0DF7030319362B6B2A4A17E32ADD
:1004F0004A134108C900C91F7F2ACE172F2BCE13DC
:100500002F2B4408C800F7004008C8024108CE005D
:10051000CE174208CD004308CC00CB010310CE0C0F
:10052000CD0CCC0CCB0CC80B8D2AC91F9A2ACA142F
:100530003B2BCA104810CA16473084008313502B37
:10054000CA12C91BAD2A481CB82ACE0CCD0CCC0C43
:10055000CB0CF70A0319362BB82ACE1BBB2A031083
:10056000CB0DCC0DCD0DCE0DF7030319362BAD2AD7
:10057000CA17E32ACA134508C900C91FC12ACE17E2
:100580002F2BCE132F2B4508CE00CE174608CD00BB
:100590004708CC00C91FD02ACE134A153B2B4A115D
:1005A000CB014810433084008313502BC91BF92A18
:1005B0004108C900481CE32ACE0CCD0CCC0CCB0C56
:1005C000F70A0319362BCB1FF42ACC0A031DF42A91
:1005D000CD0A031DF42ACE0A031DF42ACE0CCD0C3D
:1005E000CC0CF70A0319362B4A1B782ACA1BBA2AE5
:1005F000182B8030CE06CE1F012B3B2B4508C9009F
:100600000E2B4108C900CE08031D0E2BCD08031D7B
:100610000E2BCC08031D0E2BF7012F2BCE1B182BF6
:100620000310CB0DCC0DCD0DCE0DF70B0E2B362BB5
:10063000C91F1C2BCE172F2BCE132F2B4408F700CE
:100640004508CE004608CD004708CC002F2B4008B7
:10065000F7004108CE004208CD004308CC004E0808
:10066000F8004D08F9004C08FA006E2BF701F8016C
:10067000F901FA016E2BCB01CC09CD09CE09CB09CA
:10068000CB0A031D492BCC0A031D492BCD0A0319A4
:10069000CE0A4A18572ACA18992A4A19CF2AFE2A76
:1006A0000008CC07031C5A2BCD0A031D5A2BCE0A77
:1006B0000319481484030008CD07031C622BCE0ADB
:1006C0000319481484030008801F803ACE070318DA
:1006D00048144A1A5E2ACA1AA02AD62A08002B08E9
:1006E000AF002A08AE002908AD002808AC00B00110
:1006F0003B102F08B4002E08B3002D08B2002C08C0
:10070000B1002F08BF002E08BE002D08BD002C0828
:10071000BC00C301C201C101C0015B21031C942BB9
:100720003B143208803AB2003408BF003308BE00E0
:100730003208BD003108BC00C301C201C1018E30C6
:10074000C0005B210318A62B031DBD2B3408BF007E
:100750003308BE003208BD003108BC009A21790878
:10076000C1007808C0003E217A08B8007908B700B7
:100770007808B6007708B5007A2C3408BF00330833
:10078000BE003208BD003108BC008030C300963086
:10079000C2001830C1009630C0005B21031C722CCF
:1007A0003408BF003308BE003208BD003108BC0069
:1007B000C301C201C1017030C000B9217A08BF0075
:1007C0007908BE007808BD007708BC009A21790836
:1007D000BA007808B9003408BF003308BE003208F8
:1007E000BD003108BC00C301C201C1017030C000AE
:1007F000B9217A08BF007908BE007808BD007708E3
:10080000BC003A08C1003908C0003E2183143F08EB
:10081000C3003E08C2003D08C1003C08C0007A0881
:10082000C7007908C6007808C5007708C4002E22E2
:10083000BF01BE01BD018E30BC007A08C30079083B
:10084000C2007808C1007708C000B9217A08B40056
:100850007908B3007808B2007708B1003A08C100FF
:100860003908C0003E21BF01BE01BD018E30BC0071
:100870007A08C3007908C2007808C1007708C00070
:10088000B9217A08B8007908B7007808B600770867
:10089000B5003408BF003308BE003208BD0031087F
:1008A000BC009A217908C1007808C0003E2183105D
:1008B0003808C3003708C2003608C1003508C00038
:1008C0007A08C7007908C6007808C5007708C40010
:1008D0002E227A08B8007908B7007808B6007708A1
:1008E000B5007A2C3408B8003308B7003208B600D7
:1008F0003108B5003408BF003308BE003208BD001F
:100900003108BC009A217908C1007808C0003E2156
:1009100083143408C3003308C2003208C100310810
:10092000C0007A08C7007908C6007808C5007708B3
:10093000C4002E227A08B4007908B3007808B20007
:100940007708B1003B1CA72C3608803AB600340863
:10095000BF003308BE003208BD003108BC00C3012F
:10096000C201C101C0015B210319ED2C3B1CD22C3B
:10097000B008031DD22C83143808C3003708C20006
:100980003608C1003508C000C701C601C5017F3067
:10099000C4002E227A08B8007908B7007808B6009B
:1009A0007708B5003B18ED2C300BED2C8310380880
:1009B000C3003708C2003608C1003508C000C701AF
:1009C000C601C5017F30C4002E227A08B80079081C
:1009D000B7007808B6007708B5002F08BF002E08CA
:1009E000BE002D08BD002C08BC00C301C201C1011E
:1009F000C0015B21031D002DB801B701B601B5018F
:100A00003508F7003608F8003708F9003808FA000A
:100A10008A110A12E02D2708F80126020318132D67
:100A20002608F7001F2DF7010830A800A60DF70DC6
:100A3000270877020318F700F80DA80B162D0800F9
:100A400078082408A6006430A7000B257708A400C6
:100A500078083030031D332DA51C3A2DA5193A2DE9
:100A6000251A2030362DA51125122514F8077808EF
:100A7000A800C7202408A6000A30A7000B25770885
:100A8000A40078083030031D4B2DA5194F2D251CCF
:100A90004F2D251A2030F8077808A800C7203030DD
:100AA000A4072408A800C7208A110A120E2EA61B2C
:100AB000692D0F30F700250EF7050A30770203186D
:100AC000642D3030F707662D2608F7077708A80051
:100AD000C7200F30A5050A3025020318712D3030CC
:100AE000732DA6132608A5072508A800C7208A117C
:100AF0000A12222E83161F149F141F159F11831391
:100B00001F3083058312A3018316091283129001FB
:100B10000030F80092000030831692001F149F14DA
:100B20001F159F1183121F10F03097059D0503308C
:100B300083168500831282280C3003178D00003045
:100B40008F000313F3200130A9000230AA00B52062
:100B5000143003178D0000308F000313F320A10120
:100B6000A0012108073C031C282E051CB52D2830A8
:100B7000A9001B208518BE2D0310BF2D0314A30D43
:100B8000210CFA00200CF900FA0CF90CFA0CF90C03
:100B90001F30FA057908C0007A08C1003E217A08A2
:100BA000A7007908A6007808A5007708A4007A08AD
:100BB000AB007908AA007808A9007708A8006F2B75
:100BC0007A08BF007908BE007808BD007708BC002D
:100BD0009A217808A2000B08F7008B13220803174C
:100BE0008D000313230803178C0083168C130C1538
:100BF00055308D00AA308D008C148C18FD2D0C11F1
:100C00007708831203138B040E30A9000130AA0069
:100C1000B5202208A4001330A500202D0E30A90015
:100C20000230AA00B520220803178D0083168C130A
:100C30000C1483120C080313A4002408A5005730D9
:100C4000A600572D0518222EA00A0319A10AB12DBE
:040C5000AF2D630061
:02400E00393F38
:00000001FF
;PIC16F877
;CRC=E394  CREATED="25-Jun-19 15:08"
