:1000000000308A0038280000FF00030E8301A100A1
:100010000A08A0008A010408A2007708A300780853
:10002000A4007908A5007A08A600831383128C30F7
:100030008400801C1D288C182E2822088400230888
:10004000F7002408F8002508F9002608FA0020081F
:100050008A00210E8300FF0E7F0E09008A110A120A
:100060003128A70A061406108C108A110A121D28BE
:1000700003081F398300A70183161F149F141F153F
:100080009F1183130912831290010030F80092002F
:100090000030831692001F149F141F159F118312A6
:1000A0001F10F03097059D05013083168500003044
:1000B0008600831286017830F80006389200FA3004
:1000C000831692008C14C03083128B04051C6A289E
:0800D000270886006628630082
:02400E00393F38
:00000001FF
;PIC16F877
;CRC=80F5  CREATED="08-Jun-19 18:19"
