:1000000000308A001B2800002D3084008313000874
:10001000031918280130F800F701F70B0D28F80B29
:100020000C284A30F700F70B13281628800B0A28F3
:100030008A110A127A2803081F398300AA01AB012A
:1000400083161F149F141F159F118313C030831232
:10005000A000F930A100A430A200B030A300993074
:10006000A4009230A5008330A600F830A7008030AD
:10007000A8009030A9008316091283129001003065
:10008000F80092000030831692001F149F141F1571
:100090009F1183121F10F03097059D0500308316C5
:1000A000860083128601AA012A08093C031C7E28C7
:1000B000AB012B08073C031C752820302A0784005D
:1000C00083130008AC00F7002B08F80003196C2814
:1000D0000310F70CF80B68287718702806107128A1
:1000E000061486148610AB0A59280230AC00FA3088
:1000F000AD000428AC0B7728AA0A542853286300C3
:02400E00393F38
:00000001FF
;PIC16F877
;CRC=1472  CREATED="01-Jun-19 00:29"
