:1000000000308A0019280000223084008313000881
:10001000031918280130F800F701F70B0D28F80B29
:100020000C284A30F700F70B13281628800B0A28F3
:10003000080003081F39830083161F149F141F151F
:100040009F1183130912831290010030F80092006F
:100050000030831692001F149F141F159F118312E6
:100060001F10F03097059D0500308316860083121F
:10007000860101308312031386060230A100FA3094
:10008000A2000420A10B3F2802308606A100FA300E
:10009000A2000420A10B4728043086060230A100EC
:1000A000FA30A2000420A10B502808308606023046
:1000B000A100FA30A2000420A10B592810308606B6
:1000C0000230A100FA30A2000420A10B62282030E7
:1000D00086060230A100FA30A2000420A10B6B2892
:1000E000403086060230A100FA30A2000420A10BA5
:1000F0007428803086060230A100FA30A200042065
:08010000A10B7D2839286300E2
:02400E00393F38
:00000001FF
;PIC16F877
;CRC=5B29  CREATED="20-May-19 21:49"
