:1000000001308A0049290000CB326E326910CC21C0
:100010004410C437F33C6100C432EE32ED32ED34AB
:100020007A00263084008313000803192528013044
:10003000F800F701F70B1A28F80B19284A30F700D7
:10004000F70B20282328800B17280800250EA60070
:100050000F30A605831686018312260886008316B4
:100060000612831206120000831686128312861669
:10007000000083168612831286120230A600112019
:1000800025080F39A60083168601831226088600EC
:10009000831606128312061200008316861283123C
:1000A0008616000083168612831286120230A6007E
:1000B0001120080083160612831206128316861278
:1000C000831286121E30A60011200130A2002208E1
:1000D000033C031C73280330A50026200530A6002E
:1000E0001120A20A67282030A50026200430A30092
:1000F000FA30A6001120A30B78282830A50026206E
:100100000430A300FA30A6001120A30B8228083087
:10011000A50026200430A300FA30A6001120A30B6E
:100120008C280C30A50026200430A300FA30A6004D
:100130001120A30B96280630A50026200430A3002A
:10014000FA30A6001120A30BA0280130A50026201C
:100150008A110A126729220BB32801302302803842
:10016000A400A50026202208023C031DBE28013061
:100170002302403E8038A400A50026200800250E5A
:10018000A6000F30A6058316860183122608860076
:100190008316061283120616000083168612831237
:1001A0008616000083168612831286120230A6007D
:1001B000112025080F39A600831686018312260810
:1001C0008600831606128312061600008316861216
:1001D000831286160000831686128312861202305E
:1001E000A600112008000B08A2008B13831603172A
:1001F0008C170C140000000083120313A21B8B1732
:1002000003170C087F39031947290313A2000317AA
:100210000D080313A30003170F080313A4002208FB
:10022000A500BF20230803178D000313240803171C
:100230008F0003130B08A5008B13831603178C176D
:100240000C140000000083120313A51B8B17031767
:100250000C0D0E0D7F39031947290313A200031754
:100260000D080313A30003170F080313A4002208AB
:10027000A500BF20230803178D00031324080317CC
:100280008F008D0A03198F0A0313F3280317031332
:10029000080003081F398300A101A00183161F1461
:1002A0009F141F159F1183130912831290010030B0
:1002B000F80092000030831692001F149F141F153F
:1002C0009F1183121F10F03097059D055A280130A9
:1002D000A200A300AB20043003178D0000308F0074
:1002E0000313F3200430A200FA30A6001120A20B61
:1002F00074290230A2000430A300AB200C30031795
:100300008D0000308F000313F3200430A200FA3078
:10031000A6001120A20B87290130A50026200E304F
:10032000A50026200130A2000630A300AB204330F8
:10033000A500BF200430A200FA30A6001120A20BB5
:100340009C294330A500BF200430A200FA30A6004B
:100350001120A20BA6295330A500BF200430A20013
:10036000FA30A6001120A20BB0292030A500BF2032
:100370004330A500BF200430A200FA30A6001120AF
:0E038000A20BBD290130A500262067296300CD
:02400E00393F38
:00000001FF
;PIC16F877
;CRC=35FE  CREATED="19-Jun-19 12:36"
