:1000000003308A00DE2B00000C102010A021C32931
:10001000A02100000A102010C4327236E53CE931FC
:10002000E93969000C2C2022C523452949103D10CF
:10003000253200000C055910C422C722D224A01E6C
:10004000A01266000C22492945274300363084005F
:100050008313000803193A280130F800F701F70B61
:100060002F28F80B2E284A30F700F70B35283828B0
:10007000800B2C2808003D0EF039F7000F300605E4
:1000800077048600000006144528061008000608BC
:10009000F700060E0F39F80008000F30831606052A
:1000A000F038860083120615000006140000472071
:1000B0007808BD00061000000614000047207808EC
:1000C000BC0006100F3083160605860083123D0E15
:1000D000F700F030F70577083C04F80008008316B5
:1000E000061086100611831286104D207808BC0079
:1000F000BC1B75283A1C86103A188614000006119D
:10010000000006103B0EBC000F30BC053C08BD00D3
:100110003B203B080F39BC00BD003B2008002830C5
:10012000A9000C30AA000130AB000630AC0006106C
:10013000861006110F3083160605860006108610FD
:1001400006110F308312B60026200130A8002808BF
:10015000033C031CB3280330BD003B200530B60030
:100160002620A80AA7280230BD003B200530B60093
:100170002620A8012808033C031CCA282930280788
:10018000840083130008AD00BA012D08BB006F2066
:10019000A80ABA288A110A12002C370BD028D328B3
:1001A0004030B800D428B80101303602B80738080A
:1001B0008038B900BA013908BB006F200800350843
:1001C000073A0319ED280B3A0319F228063A0319E6
:1001D000FA28023A0319002905290130B600B700B0
:1001E000CD200A29BA010130BB006F200230B600D1
:1001F00026200A290130B6000230B700CD200A2996
:10020000BA011030BB006F200A290130BA0035084E
:10021000BB006F2008000B08A8008B138316031780
:100220008C170C140000000083120313A81B8B17FB
:1002300003170C087F3903195F290313A80003175C
:100240000D080313A90003170F080313AA002808B9
:10025000B500DF20290803178D0003132A080317B0
:100260008F0003130B08AB008B13831603178C1737
:100270000C140000000083120313AB1B8B17031731
:100280000C0D0E0D7F3903195F290313A800031706
:100290000D080313A90003170F080313AA00280869
:1002A000B500DF20290803178D0003132A08031760
:1002B0008F008D0A03198F0A03130B2903170313E9
:1002C00008000B08A9008B13831603178C170C1456
:1002D0000000000083120313A91B8B170318982931
:1002E00003170C087F390313A90003170D08031324
:1002F000AA0003170F080313AB002908B500DF207D
:100300002A0803178D0003132B0803178F0003130C
:100310000B08AC008B13831603178C170C1400000A
:10032000000083120313AC1B8B17A80B9829B72965
:1003300003170C0D0E0D7F390313A90003170D08C9
:100340000313AA0003170F080313AB002908B50015
:10035000DF202A0803178D0003132B0803178F00D3
:100360008D0A03198F0A03100313A80B61290800D3
:100370002F08F8012E020318C0292E08F700CC29F7
:10038000F7010830B000AE0DF70D2F087702031803
:10039000F700F80DB00BC32908002030291E3030BB
:1003A000AA002808F700A81FDD29F709F70A77082F
:1003B000A8002D30AA00A91729142808AE0064301F
:1003C000AF00B8217708A80030307807AB002808C4
:1003D000AE000A30AF00B82130307707AD003030C2
:1003E0007807AC002A08F70030302B020319FC29EB
:1003F000A914A91B2915102A2A08AB002030AA002D
:1004000030302C020319082A2914A91BA914102A18
:10041000031D2914031D102A2B08AC002030AB004B
:100420002919172AA9181A2A29181D2A202A2A0840
:10043000B500DF202B08B500DF202C08B500DF2039
:100440002D08B500DF208A110A123D2C83182B2AB3
:100450003D3084008313F701F801F901FA01BD0171
:10046000BE01BF01C0013C083B043A043904031932
:10047000692A2030C1000310B50DB60DB70DB80DB7
:10048000BD0DBE0DBF0DC00D3C084002031D522A1C
:100490003B083F02031D522A3A083E02031D522A1E
:1004A00039083D02031C632A3908BD023A08031CBF
:1004B0003A0FBE023B08031C3B0FBF023C08031C63
:1004C0003C0FC0020314F70DF80DF90DFA0DC10B26
:1004D0003B2A3D088000840A3E088000840A3F08C9
:1004E0008000840A4008800008000408AD002C0841
:1004F000AF000319072B2B08B8002A08B7002908FA
:10050000B6002808B500BC01BB012030BA0082301B
:10051000B90035080319F92ABD0039080319F92A69
:10052000BD0703189A2A7F30BD02031CF92A03195C
:10053000F92A9E2A8130BD070318F92A3D08F700E1
:10054000F801F901FA013608C100C1173708C000E7
:100550003808BF001830BD00BE013F1CC72A3C0848
:10056000FA07031CB92AF90A031DB92AF80A031964
:10057000BE173B08F907031CC02AF80A0319BE1767
:100580003A08B700B7173708F8070318BE17BE0DAB
:10059000F80CF90CFA0CC10CC00CBF0C0310BD0B0D
:1005A000AC2A0130F7070318F92AF81BDE2AC10D1F
:1005B000FA0DF90DF80DF7030319F92AC11FEF2AF7
:1005C000FA0A031DEF2AF90A031DEF2AF80A031D90
:1005D000EF2AF80CF90CFA0CF70A0319F92A360875
:1005E000BE003A08BE06BE1FF72AF817FD2AF81308
:1005F000FD2AF701F801F901FA017A08AB00790840
:10060000AA007808A9007708A800AF0B7B2A2B085E
:10061000B8002A08B7002908B6002808B500350830
:10062000B63CB500FA013608B900B6170310B60C8F
:10063000B70CB80CFA0CF90CF80CF70CB50B162B20
:10064000B91F2D2BF709F809F909FA09F70A031957
:10065000F80A0319F90A0319FA0A7A08AB007908AB
:10066000AA007808A9007708A800AB1F442BAD03A7
:10067000AD16A809A909AA09AB09A80A0319A90A6C
:100680000319AA0A0319AB0A3B30B4009A30B3002D
:10069000CA30B200B1010A30AF002C080319AD0A0C
:1006A00083142830840083132B08B8002A08B7006D
:1006B0002908B6002808B5003408BC003308BB0080
:1006C0003208BA003108B90026227808F708031D5D
:1006D0007C2B2C0A2F0203197C2B2D0803197E2B4F
:1006E0000F392F020319762B0318AE2BAD1BAE2B3F
:1006F0002D1B7E2B2030AA2B2030AD05AD1E8C2B60
:10070000AD122C08031DAD037708AD002D30B500E8
:10071000DF202D08F700AD012C082F02031D9A2BB6
:100720007708AD002E30B500DF202D08F70020300F
:10073000AD0500303030AD1EAA2BAD122C08031DC4
:10074000AD037708AD002D30B500DF202D08F70090
:10075000AD013030F7077708B500DF20831034088B
:10076000B8003308B7003208B6003108B500BC0144
:10077000BB01BA010A30B90026227A08B400790810
:10078000B3007808B2007708B100AF0B502B8A1184
:100790000A125B2C2808B6002908B700CD204D208E
:1007A0007808AB00AB1BCF2B86144D207808AA002D
:1007B00086102A08F8008A110A12752C03081F39BE
:1007C0008300A701A60183161F149F141F159F11F4
:1007D00083130912831290010030F8009200003058
:1007E000831692001F149F141F159F1183121F1050
:1007F000F03097059D0500308316860083128F2800
:100800000A30A0006630A400A3000230A2008430A9
:10081000A100BA010D30BB006F20043003178D001A
:1008200000308F0003130B210430A800FA30B6000B
:100830002620A80B162C0A3003178D0000308F00DD
:1008400003130B210430A800FA30B6002620A80BB1
:10085000242C0130B6000230B700CD20123003172F
:100860008D0000308F0003100C300313A8006121AD
:100870002008A8001830A900CD290430A800FA30BB
:10088000B6002620A80B3F2C1A3003178D0000302D
:100890008F0003100D300313A800612189308400FC
:1008A0002408AB002308AA002208A9002108A800F8
:1008B0000230AC00752A0430A800FA30B6002620B9
:1008C000A80B5D2C223003178D0000308F0003131E
:1008D0000B210430A800FA30B6002620A80B6B2CA0
:1008E0000330A8000130A900CA2B7808A5000C30FD
:1008F000B500DF202508B500DF200830A800FA3059
:0C090000B6002620A80B7F2C092C6300F9
:02400E00393F38
:00000001FF
;PIC16F877
;CRC=CC6C  CREATED="16-Jun-19 17:31"
