:1000000000308A006F280000FF00030E8301A1006A
:100010000A08A0008A010408A2007708A300780853
:10002000A4007908A5007A08A600831383120B1E8A
:100030001B288B182C28220884002308F70024088A
:10004000F8002508F9002608FA0020088A00210E89
:100050008300FF0E7F0E09008A110A1244282930FE
:10006000840083130008031943280130F800F701C6
:10007000F70B3828F80B37284A30F700F70B3E28E3
:100080004128800B3528080086140430A800FA3077
:10009000A9002F20A80B472886100C30A800FA30A2
:1000A000A9002F20A80B4F28A7012708093C031CF3
:1000B0006B2886140230A800FA30A9002F20A80B64
:1000C0005C2886100230A800FA30A9002F20A80B67
:1000D0006428A70A55288B108A110A121B280308C6
:1000E0001F39830083161F149F141F159F1183133C
:1000F0000912831290010030F8009200003083163C
:1001000092001F149F141F159F1183121F10F030AF
:1001100097059D050130831686008312860183169C
:0E012000011383120B16C0308B049528630068
:02400E00393F38
:00000001FF
;PIC16F877
;CRC=B79A  CREATED="07-Jun-19 16:04"
