:1000000000308A0019280000223084008313000881
:10001000031918280130F800F701F70B0D28F80B29
:100020000C284A30F700F70B13281628800B0A28F3
:10003000080003081F39830083161F149F141F151F
:100040009F1183130912831290010030F80092006F
:100050000030831692001F149F141F159F118312E6
:100060001F10F03097059D0500308316860083121F
:1000700086010130A100A0012008073C031C49288B
:10008000210886000310A10D6430A2000420A00AFC
:100090003C288030A100210886006430A2000420A2
:1000A000A0012008063C031C5E280310A10C2108B7
:1000B00086006430A2000420A00A51283928630079
:02400E00393F38
:00000001FF
;PIC16F877
;CRC=49DD  CREATED="21-May-19 18:15"
