:1000000005308A000B2D00000A108A100A118207A1
:1000100028340C34013406348C29E931E135EC34D0
:10002000EB1E0000383084008313000803192628D3
:100030000130F800F701F70B1B28F80B1A284A309B
:10004000F700F70B21282428800B182808003F0E02
:10005000F039F7000F30060577048600000006141B
:100060003128061008000608F700060E0F39F800C0
:1000700008008316061086100611831286100F30B2
:1000800083160605F0388600831206150000061454
:10009000000033207808BF0006100000061400009E
:1000A00033207808BE0006100F3083160605860040
:1000B00083123F0EF700F030F70577083E04F80092
:1000C0007808BE00BE1B3F283C1C86103C188614D6
:1000D00000000611000006103D0EBE000F30BE05E8
:1000E0003E08BF0027203D080F39BE00BF00272073
:1000F00008000F30831606058600061086100611CC
:1001000083128610061106100F30B800122001303D
:10011000AA002A08033C031C95280330BF002720AF
:100120000530B8001220AA0A89280230BF00272013
:100130000530B8001220AA012A08033C031CA92894
:100140002A080420AB00BC012B08BD003920AA0AF4
:100150009C288A110A12312D390BAF28B228403061
:10016000BA00B328BA0101303802BA073A08803819
:10017000BB00BC013B08BD00392008003708073A26
:100180000319CC280B3A0319D128063A0319D928A8
:10019000023A0319DF28E4280130B800B900AC2086
:1001A000E928BC010130BD0039200230B80012201E
:1001B000E9280130B8000230B900AC20E928BC01C0
:1001C0001030BD003920E9280130BC003708BD00DF
:1001D000392008000B08AA008B13831603178C170D
:1001E0000C140000000083120C087F390319312918
:1001F0000313AB0003170D080313AC0003170F081C
:100200000313AD002B08B700BE202C0803178D0088
:1002100003132D0803178F0083168C170C1400008E
:10022000000083120C0D0E0D7F39031931290313C1
:10023000AB0003170D080313AC0003170F080313DB
:10024000AD002B08B700BE202C0803178D00031348
:100250002D0803178F008D0A03198F0A0313ED2849
:1002600003170313AA1B8B178A110A12432D8E3012
:10027000F7002B08F8002A08F900FA01F808031D16
:100280004B297908F800F9010830F702F808031D36
:100290004B29F70153290310F81B5229F90DF80DCA
:1002A000F7034B29F8138A110A12512D3708031945
:1002B000C629BF003B080319C629BF0703186729D1
:1002C0007F30BF02031CC6290319C6296B29813060
:1002D000BF070318C6293F08F700F801F901FA0122
:1002E0003808C300C3173908C2003A08C1001830E3
:1002F000BF00C001411C94293E08FA07031C86294F
:10030000F90A031D8629F80A0319C0173D08F907E1
:10031000031C8D29F80A0319C0173C08B900B91746
:100320003908F8070318C017C00DF80CF90CFA0CBF
:10033000C30CC20CC10C0310BF0B79290130F707A5
:100340000318C629F81BAB29C30DFA0DF90DF80DDA
:10035000F7030319C629C31FBC29FA0A031DBC29C8
:10036000F90A031DBC29F80A031DBC29F80CF90C75
:10037000FA0CF70A0319C6293808C0003C08C00661
:10038000C01FC429F817CA29F813CA29F701F801B0
:10039000F901FA0108002A080319902AB6002E086C
:1003A0000319902AB602031CDA297F30B607031816
:1003B000902AE0298130B602031C902A0319902A62
:1003C0003608F700F801F901FA01B5012B08B4006D
:1003D000B4172C08B3002D08B2001930B60031084C
:1003E000B2020318032A0130B3020318032AB4022D
:1003F0000318032AB5020318032AB50AB40AB30A7C
:100400003108B207352A3008B30203181E2A01301A
:10041000B40203181E2AB50203181E2AB50AB40A2C
:100420003008B3073108B207031C352AB30A031D8D
:10043000352AB40A031D352AB50A352A2F08803813
:10044000B4020318342A0130B5020318342AB50A5D
:100450002F088038B4073008B307031C122AB40AE7
:10046000031D122AB50A122A7A14B60B382A432A17
:100470000310B20DB30DB40DB50D0310FA0DF90D47
:10048000F80DB70DEF29371C4B2A0310F80CF90CA7
:10049000FA0CB70C4E2AF7030319902AB71B772AD8
:1004A0000310B20DB30DB40DB50D3108B20203182F
:1004B000632A0130B3020318632AB4020318632AC3
:1004C000B502031C862A3008B30203186E2A0130D5
:1004D000B40203186E2AB502031C862A2F0880383E
:1004E000B4020318772A0130B502031C862AFA0ADF
:1004F000031D862AF90A031D862AF80A031D862A87
:10050000F70A0319902AF80CF90CFA0C2B08B6001C
:100510002F08B606B61F8E2AF817942AF813942AC5
:10052000F701F801F901FA018A110A128E2D8030C3
:100530008318B306B801B9012F08B7003308B7060E
:100540002E080319872BB600F70032080319902BE9
:10055000B60203192C2B031CEA2A3308BC00BC1773
:100560003408BB003508BA00B9010310BC0CBB0C41
:10057000BA0CB90CB60BB42AB71FC12A3814A42B75
:10058000381036103816313084008313B92B3812E6
:10059000B71BD42A361CDF2ABC0CBB0CBA0CB90C16
:1005A000F70A03199F2BDF2ABC1BE22A0310B90D9F
:1005B000BA0DBB0DBC0DF70303199F2BD42A3817B6
:1005C0004C2B38132F08B700B71FE82ABC17982BFD
:1005D000BC13982B3208B600F7002E08B6022F087D
:1005E000BC00BC173008BB003108BA00B9010310C9
:1005F000BC0CBB0CBA0CB90CB60BF62AB71F032BFC
:10060000B814A42BB8103610B816353084008313F4
:10061000B92BB812B71B162B361C212BBC0CBB0CEC
:10062000BA0CB90CF70A03199F2B212BBC1B242BE6
:100630000310B90DBA0DBB0DBC0DF70303199F2BA9
:10064000162BB8174C2BB8133308B700B71F2A2B3B
:10065000BC17982BBC13982B3308BC00BC1734086C
:10066000BB003508BA00B71F392BBC133815A42BB3
:100670003811B9013610313084008313B92BB71B00
:10068000622B2F08B700361C4C2BBC0CBB0CBA0CD1
:10069000B90CF70A03199F2BB91F5D2BBA0A031D6A
:1006A0005D2BBB0A031D5D2BBC0A031D5D2BBC0C1F
:1006B000BB0CBA0CF70A03199F2B381BE12AB81B95
:1006C000232B812B8030BC06BC1F6A2BA42B330844
:1006D000B700772B2F08B700BC08031D772BBB088A
:1006E000031D772BBA08031D772BF701982BBC1B32
:1006F000812B0310B90DBA0DBB0DBC0DF70B772B79
:100700009F2BB71F852BBC17982BBC13982B320837
:10071000F7003308BC003408BB003508BA00982B3A
:100720002E08F7002F08BC003008BB003108BA00C3
:100730003C08F8003B08F9003A08FA00D72BF7010B
:10074000F801F901FA01D72BB901BA09BB09BC09B3
:10075000B909B90A031DB22BBA0A031DB22BBB0A91
:100760000319BC0A3818C02AB818022B3819382BBC
:10077000672B0008BA07031CC32BBB0A031DC32B3E
:10078000BC0A0319361484030008BB07031CCB2BD7
:10079000BC0A0319361484030008801F803ABC0782
:1007A00003183614381AC72AB81A092B3F2B8A1196
:1007B0000A12A52D8318DF2B3F3084008313F70125
:1007C000F801F901FA01BF01C001C101C2013E08EF
:1007D0003D043C043B0403191D2C2030C3000310CE
:1007E000B70DB80DB90DBA0DBF0DC00DC10DC20DBD
:1007F0003E084202031D062C3D084102031D062C43
:100800003C084002031D062C3B083F02031C172C2A
:100810003B08BF023C08031C3C0FC0023D08031C00
:100820003D0FC1023E08031C3E0FC2020314F70D28
:10083000F80DF90DFA0DC30BEF2B3F088000840A69
:1008400040088000840A41088000840A4208800031
:1008500008000408AF002E08B1000319482C2D0829
:10086000BA002C08B9002B08B8002A08B700BE014E
:10087000BD012030BC008230BB0056217A08AD009B
:100880007908AC007808AB007708AA00B10B2F2CD0
:100890002D08BA002C08B9002B08B8002A08B700A8
:1008A0003708B63CB700FA013808BB00B817031088
:1008B000B80CB90CBA0CFA0CF90CF80CF70CB70B15
:1008C000572CBB1F6E2CF709F809F909FA09F70A2A
:1008D0000319F80A0319F90A0319FA0A7A08AD008C
:1008E0007908AC007808AB007708AA00AD1F852C0A
:1008F000AF03AF16AA09AB09AC09AD09AA0A0319DF
:10090000AB0A0319AC0A0319AD0A3B30B6009A30A2
:10091000B500CA30B400B3010A30B1002E08031983
:10092000AF0A83142A30840083132D08BA002C08E0
:10093000B9002B08B8002A08B7003608BE003508F1
:10094000BD003408BC003308BB00DA237808F70880
:10095000031DBD2C2E0A31020319BD2C2F080319CB
:10096000BF2C0F3931020319B72C0318EF2CAF1B22
:10097000EF2C2F1BBF2C2030EB2C2030AF05AF1EEF
:10098000CD2CAF122E08031DAF037708AF002D301A
:10099000B700BE202F08F700AF012E083102031D5B
:1009A000DB2C7708AF002E30B700BE202F08F700F1
:1009B0002030AF0500303030AF1EEB2CAF122E08C8
:1009C000031DAF037708AF002D30B700BE202F08FE
:1009D000F700AF013030F7077708B700BE2083106B
:1009E0003608BA003508B9003408B8003308B70033
:1009F000BE01BD01BC010A30BB00DA237A08B60093
:100A00007908B5007808B4007708B300B10B912CD1
:100A10008A110A12BF2D83161F149F141F159F11D0
:100A200083131F3083050912831290010030F800F0
:100A30009200003083169200F030831297059D05D6
:100A400001308316850083121F139F1783169F178B
:100A500083121F1483161F109F141F159F158312D6
:100A600079280030F8001F08C73978049F00063045
:100A7000F700F70B392D00000C3003178D00003004
:100A80008F000313EA281F151F19442D83161E0813
:100A90008312A0001E08A1002108AB002008AA00B4
:100AA0003729BA01B9012030B8007730B7007A0889
:100AB000BE007908BD007808BC007708BB0056214D
:100AC0007A08AD007908AC007808AB007708AA0076
:100AD0007A08BA007908B9007808B8007708B70032
:100AE000BE01BD017A30BC008830BB0056217A08B7
:100AF000A5007908A4007808A3007708A2002508BB
:100B0000AD002408AC002308AB002208AA00B10104
:100B1000B0012030AF008230AE00CB297A08AD00A2
:100B20007908AC007808AB007708AA0083107A082F
:100B3000B1007908B0007808AF007708AE00B501C1
:100B4000B401B3018030B200972A7A08A90079086D
:100B5000A8007808A7007708A6000A30B80001307E
:100B6000B900AC20043084002908AD002808AC008E
:100B70002708AB002608AA000130AE00292C20303F
:100B8000B700BE20B030B700BE204330B700BE2053
:0A0B90006430B8001220432D63000A
:02400E00393F38
:00000001FF
;PIC16F877
;CRC=FAC1  CREATED="22-Jun-19 18:08"
